:100000000C9402010C942A010C942A010C94B4144F
:100010000C94DE140C9408150C942A010C942A01FB
:100020000C942A010C942A010C942A010C949F1818
:100030000C942A010C942A010C942A010C942A0194
:100040000C94A41B0C942A010C94E41E0C94361FEF
:100050000C942A010C942A010C942A010C942A0174
:100060000C949B120C942A019C10B010C010D31059
:10007000DB10291132113D1145114C114C114C115D
:100080004C114C114C114C114C114C114C114C1188
:100090004C114C114C114C114C114C114C114C1178
:1000A0004C114C114C114C119C10A810B010C010E8
:1000B000D310DB10EE10F610FE10084AD73B3BCEF3
:1000C000016E84BCBFFDC12F3D6C74319ABD568357
:1000D0003DDA3D00C77F11BED9E4BB4C3E916BAA0F
:1000E000AABE000000803F05A84CCDB2D44EB9385E
:1000F00036A9020C50B9918688083CA6AAAA2ABE45
:10010000000000803F00C201000100110011000C3E
:100110000000E100000A00250025002100009600F3
:10012000001900390039003600127A00001F00461D
:1001300000460044008070000022004D004D004A3F
:1001400000004B000036007500750072004038005A
:10015000004A009C009C009900802500007200EC81
:1001600000EC00E900C0120000E900DA01DA01D772
:100170000160090000D701B603B603B303B0040061
:1001800000B3036E076E076B07580200006E07DCB2
:100190000EDC0ED80E2C010000DC0EC11DC11DBEF0
:1001A0001D00000000240027002A00000000002598
:1001B0000028002B00000000002300260029000476
:1001C00004040404040404020202020202030303FE
:1001D00003030301020408102040800102040810F8
:1001E00020010204081020000000070002010000A6
:1001F0000304060000000000000000001504FD11CB
:10020000A5200E0411241FBECFEFD8E0DEBFCDBF66
:1002100013E0A0E0B1E0EAECFAE402C005900D9230
:10022000A636B107D9F716E0A6E6B3E001C01D92E5
:10023000A231B107E1F711E0C2E0D2E004C0229799
:10024000FE010E941D25CC3FD107C9F70E94D21E96
:100250000C9458250C940000FC0188279927E894F9
:1002600021912032E9F3293010F02E30C8F32B32DF
:1002700041F02D3239F4689404C00E944A01820F83
:10028000911D219120532A30C0F31EF49095819541
:100290009F4F08957AE0979F902D879F802D910D15
:1002A00011240895A0E0B0E0E8E5F1E00C943125D8
:1002B000FE0135966191719180910E0690910F0625
:1002C000AF010E9471012096E2E00C944D259C0143
:1002D000AB0180910E0690910F06B9010E94710149
:1002E0000895ABE0B0E0E7E7F1E00C9421253C0194
:1002F0002B015A01FC0117821682838181FD03C004
:100300006FEF7FEFC6C19AE0892E1E010894211C71
:10031000311CF3012381F20123FD859123FF81919B
:100320002F01882309F4B2C1853239F423FD859168
:1003300023FF81912F01853229F490E0B3010E94BF
:100340006403E7CF982FFF24EE249924FFE1FF15E3
:10035000D0F09B3269F09C3228F4903259F09332FD
:1003600091F40EC09D3249F0903369F441E024C00D
:1003700052E0F52A84E0F82A28C098E0F92A25C03E
:10038000E0E1FE2A22C0F7FC29C0892F80538A3081
:1003900070F4F6FE05C0989C902C1124980E15C0A0
:1003A000E89CE02C1124E80EF0E2FF2A0EC09E32F9
:1003B00029F4F6FC6BC140E4F42A07C09C3619F41A
:1003C00050E8F52A02C0983649F4F20123FD9591D0
:1003D00023FF91912F01992309F0B8CF892F8554DC
:1003E000833018F08052833038F444E050E0A40E9B
:1003F000B51E5FE359830FC0933631F0933779F020
:10040000933509F056C020C0F5018081898342E010
:1004100050E0A40EB51E610101E010E012C0F5012C
:10042000C080D180F6FC03C06FEF7FEF02C0692D62
:1004300070E042E050E0A40EB51EC6010E945903D0
:100440008C015FE7F52214C0F501C080D180F6FC75
:1004500003C06FEF7FEF02C0692D70E042E050E013
:10046000A40EB51EC6010E944E038C0150E8F52A69
:10047000F3FE07C01AC080E290E0B3010E9464035B
:10048000EA948E2D90E008171907A8F30EC0F60124
:10049000F7FC8591F7FE81916F0190E0B3010E9416
:1004A0006403E110EA94015010400115110579F739
:1004B000EAC0943611F0993669F5F7FE08C0F501E7
:1004C000208131814281538184E090E00AC0F501AE
:1004D000808191819C01442737FD4095542F82E013
:1004E00090E0A80EB91E9FE6F92257FF09C050956B
:1004F0004095309521953F4F4F4F5F4FE0E8FE2AE2
:10050000CA01B901A1012AE030E00E949003D82E6F
:10051000D21840C0953729F41F2D1F7E2AE030E005
:100520001DC01F2D197F9F3661F0903720F498353C
:1005300009F0ACC00FC0903739F0983709F0A6C069
:1005400004C028E030E00AC0106114FD146020E10E
:1005500030E004C014FD166020E132E017FF08C04F
:10056000F501608171818281938144E050E008C08F
:10057000F50180819181BC0180E090E042E050E093
:10058000A40EB51EA1010E949003D82ED2188FE7A9
:10059000F82EF122F6FE0BC05EEFF522D91438F4E6
:1005A000F4FE07C0F2FC05C08FEEF82202C01D2D3C
:1005B00001C0192DF4FE0DC0FE01ED0DF11D80816D
:1005C000803319F499EEF92208C01F5FF2FE05C0CE
:1005D00003C08F2D867809F01F5F0F2DF3FC14C028
:1005E000F0FE0FC01E1510F09D2C0BC09D2C9E0C14
:1005F000911A1E2D06C080E290E0B3010E946403B0
:100600001F5F1E15C0F304C01E1510F4E11A01C0CF
:10061000EE2404FF0FC080E390E0B3010E94640366
:1006200002FF1DC001FD03C088E790E00EC088E511
:1006300090E00BC0802F867891F001FF02C08BE222
:1006400001C080E2F7FC8DE290E0B3010E946403F8
:1006500006C080E390E0B3010E9464039A94D91429
:10066000C0F3DA94F101ED0DF11D808190E0B3014A
:100670000E946403DD20A9F706C080E290E0B30188
:100680000E946403EA94EE20C1F743CEF301668131
:100690007781CB012B96E2E10C943D25FC0105907E
:1006A000615070400110D8F7809590958E0F9F1F74
:1006B0000895FC016150704001900110D8F78095B9
:1006C00090958E0F9F1F08950F931F93CF93DF93E5
:1006D0008C01EB018B8181FF1BC082FF0DC02E813D
:1006E0003F818C819D812817390764F4E881F98165
:1006F0000193F983E88306C0E885F985802F099581
:10070000892B31F48E819F8101969F838E8302C055
:100710000FEF1FEFC801DF91CF911F910F91089547
:10072000FA01AA27283051F1203181F1E8946F9322
:100730006E7F6E5F7F4F8F4F9F4FAF4FB1E03ED0C8
:10074000B4E03CD0670F781F891F9A1FA11D680F66
:10075000791F8A1F911DA11D6A0F711D811D911D99
:10076000A11D20D009F468943F912AE0269F11240E
:100770003019305D3193DEF6CF010895462F477072
:10078000405D4193B3E00FD0C9F7F6CF462F4F70CD
:10079000405D4A3318F0495D31FD4052419302D02B
:1007A000A9F7EACFB4E0A6959795879577956795D1
:1007B000BA95C9F700976105710508959B01AC01D1
:1007C0000A2E06945795479537952795BA95C9F7F8
:1007D000620F731F841F951FA01D0895813091051E
:1007E00099F46F5F7F4FC9F486E693E00E94CA17C1
:1007F00089E693E06BE04CE020E00E949C1785E8DE
:1008000093E00E94460A0895892B39F46F5F7F4F69
:1008100021F489E693E00E942416089580E090E098
:100820006FEF7FEF0E94EE03089581E090E06FEF9D
:100830007FEF0E94EE0308951F93CF93DF93182F4D
:10084000EB018430C0F48AEE95E060E071E00E9434
:10085000C11D8AEE95E0612F4AE050E00E946F1DB5
:100860008AEE95E066E071E00E94C11D8AEE95E097
:10087000BE010E94BE1EDF91CF911F910895DF93AC
:10088000CF93CDB7DEB72D812430E8F400D000D06F
:10089000EDB7FEB7319680E191E0ADB7BEB71296E5
:1008A0009C938E931197228313820E9452019E0182
:1008B000285F3F4F0F900F900F900F908E819F8178
:1008C000B9010E946701CF91DF910895CF92DF9225
:1008D000EF92FF920F931F93DF93CF93CDB7DEB7C5
:1008E0002F970FB6F894DEBF0FBECDBF8AEE95E00E
:1008F00040E855E260E070E00E94711F89E693E0F5
:1009000040EC52E160E070E00E94321581E061E26B
:1009100071E00E941C0483E395E09093140480939B
:100920001304109216041092150422E020930E0472
:1009300010921804109217048BE094E090930F0625
:1009400080930E0600D00F92EDB7FEB7218389E3A6
:1009500091E0938382830E943F040F900F900F9049
:1009600068E873E180E090E00E94FA1B82E06DE4A9
:1009700071E00E941C0486E693E065E070E044E2CA
:1009800054E020E837E00E94201886E693E06CED02
:1009900075E00E94E41782E062E671E00E941C04A8
:1009A00082E067E671E00E941C048EE594E00E94FC
:1009B000751282E062E671E00E941C0482E069E741
:1009C00071E00E941C048AE061E00E94111B8AE031
:1009D00061E00E94501B7E010894E11CF11C87011C
:1009E00080E1C82ED12CCC0EDD1E89E693E00E945A
:1009F0004E16892B31F089E693E00E942D16F801FE
:100A000080830F5F1F4F0C151D0579F78AEE95E067
:100A1000F70161917F010E94B81CE016F106B1F761
:100A20008AEE95E00E94C01C68EE73E080E090E0E2
:100A30000E94FA1B82E062E671E00E941C0482E0E0
:100A40006BE871E00E941C042F960FB6F894DEBF8D
:100A50000FBECDBFCF91DF911F910F91FF90EF900F
:100A6000DF90CF900895682F772767FD70958AEE05
:100A700095E00E94652080E090E008952F923F92DB
:100A80004F925F926F927F928F929F92AF92BF929E
:100A9000CF92DF92EF92FF920F931F93DF93CF934A
:100AA000CDB7DEB767970FB6F894DEBF0FBECDBFE8
:100AB0008FE097E2A0E0B0E088879987AA87BB879C
:100AC00083E06BE971E00E941C0490E1292E312C37
:100AD0002C0E3D1E8CE0482E512C4C0E5D1E08E065
:100AE000602E712C6C0E7D1E1BEB812E11E0912E61
:100AF000BBECAB2EB1E0BB2E9CC000D00F92E3E06C
:100B0000ADB7BEB71196EC9311972DEA31E013966D
:100B10003C932E9312970E943F040F900F900F90DA
:100B20000E94EC1B6B017C0180ED97E0A0E0B0E03F
:100B3000C80ED91EEA1EFB1E18C089E693E00E946B
:100B40004E16892B91F089E693E00E942D168C01B8
:100B500085E893E0602F0E9458118AEE95E0602F9F
:100B60000E9465200A30110539F00E94EC1B6C15BB
:100B70007D058E059F0508F385E893E0B101A2018C
:100B800093010E94D50BADB7BEB717970FB6F89477
:100B9000BEBF0FBEADBFEDB7FEB7319623E01196D5
:100BA0002C939282818288859985AA85BB858383CF
:100BB0009483A583B6830E943F048DB79EB70796A2
:100BC0000FB6F8949EBF0FBE8DBF88859985AA8504
:100BD000BB858F3FEFEF9E07EFEFAE07EFEFBE074E
:100BE00041F52DB73EB7275030400FB6F8943EBFC1
:100BF0000FBE2DBF4DB75EB74F5F5F4F22E0EDB721
:100C0000FEB72183FA01B282A18283839483A583F4
:100C1000B6830E943F042DB73EB7295F3F4F0FB602
:100C2000F8943EBF0FBE2DBF82E066EE71E00E94D9
:100C30001C0488859985AA85BB85895B9B40A0405B
:100C4000B04008F05ACF8E01085F1F4F85E893E04F
:100C5000BE01605F7F4FAE01445F5F4F98010E940D
:100C6000D50B85E893E06FEF73E043E054E0980123
:100C70000E94300D8091B5039091B6039093F903D3
:100C80008093F80388859985AA85BB858F5F9F4FE0
:100C9000AF4FBF4F31F482E061EF71E00E941C045E
:100CA00082C082E06DEF71E00E941C042DB73EB758
:100CB0002B5030400FB6F8943EBF0FBE2DBF0DB77E
:100CC0001EB70F5F1F4F82E0ADB7BEB711968C9372
:100CD00087E092E0F801928381836091FF03709135
:100CE0000004809101049091020420E030E04AE782
:100CF00054E40E9486230E943122D80113966D93FA
:100D00007D938D939C9316976091030470910404D6
:100D1000809105049091060420E030E04AE754E415
:100D20000E9486230E943122F801678370878187A1
:100D300092870E943F042DB73EB7255F3F4F0FB605
:100D4000F8943EBF0FBE2DBF85E893E0BE016A5FF9
:100D50007F4FAE014F5F5F4F9E012E5F3F4F8E0171
:100D60000D5F1F4FA4E0EA2EF12CEC0EFD1EF5E006
:100D7000CF2ED12CCC0EDD1EAA24BB24E4E18E2E76
:100D8000912C8C0E9D1E0E941D0C6C814D812A8120
:100D90000981EE80FF808B8190E070E050E030E0D0
:100DA00010E00E94611A67960FB6F894DEBF0FBE7E
:100DB000CDBFCF91DF911F910F91FF90EF90DF900A
:100DC000CF90BF90AF909F908F907F906F905F90EB
:100DD0004F903F902F9008952F923F924F925F92A5
:100DE0006F927F928F929F92AF92BF92CF92DF923B
:100DF000EF92FF920F931F93DF93CF93CDB7DEB7A0
:100E0000C855D0400FB6F894DEBF0FBECDBF2EEF51
:100E100037E045E552E429833A834B835C838AE1DA
:100E200093EEA1E1B1EC89A39AA3ABA3BCA38BEF92
:100E300097E0A5E5B2E48D839E83AF83B88783E115
:100E400091EEA1E1B1EC8DA39EA3AFA3B8A7298732
:100E50003A874B875C870F2EF9E0EF2EF1EEFF2EDD
:100E6000F1E10F2FF1EC1F2FF02DE9A6FAA60BA749
:100E70001CA78CE198E0A5E5B2E48D879E87AF873B
:100E8000B88B8DEF91EEA1E1B1EC8DA79EA7AFA736
:100E9000B8AB8EE198E0A5E5B2E4898B9A8BAB8B79
:100EA000BC8B88E092EEA1E1B1EC89AB9AABABAB25
:100EB000BCAB80E098E0A5E5B2E48D8B9E8BAF8B58
:100EC000B88F85E293EEA1E1B1EC8DAB9EABAFABF9
:100ED000B8AF298F3A8F4B8F5C8FE9AEFAAE0BAF6C
:100EE0001CAF87EB98E0A5E5B2E48D8F9E8FAF8FA6
:100EF000B8A3FE01FD9689E298EEA1E1B1EC8083F2
:100F00009183A283B3838AEE95E069E172E00E9447
:100F1000BE1E65961CAE1DAE1EAE1FAE659722248A
:100F200033240F2EF0E0EF2EF0E0FF2EF0E00F2F35
:100F3000F0E01F2FF02D2F96ECAEFDAE0EAF1FAFE1
:100F40002F972B961CAE1DAE1EAE1FAE2B9704C066
:100F500027962EAC3FAC27970E94EC1B9B01AC015F
:100F600065968CAD9DADAEADBFAD659728173907C1
:100F70004A075B07F9F0DA01C9016596ECACFDACF4
:100F80000EAD1FAD65978E199F09A00BB10B84366E
:100F90009105A105B10570F4D801C7018C599F4F87
:100FA000AF4FBF4F821B930BA40BB50BBC01CD0100
:100FB0000E94FA1B0E94EC1B65966CAF7DAF8EAF52
:100FC0009FAF659783E067E272E00E941C040E9475
:100FD0003E05F101EE0FFF1FEE0FFF1FA1E0B0E095
:100FE000AC0FBD1FEA0FFB1F4080518062807380F1
:100FF000E0A0F1A002A113A16996ECAEFDAE0EAF88
:101000001FAF69974091FF03509100046091010464
:1010100070910204009103041091040420910504CE
:101020003091060485E893E07301620169968CAC07
:101030009DACAEACBFAC69970E94A20D0E9431225C
:1010400061967FAF6EAF61974091FF0350910004AE
:101050006091010470910204009103041091040452
:10106000209105043091060485E893E069968CACE4
:101070009DACAEACBFAC69970E946D0E2B013C01DC
:1010800020E030E040EA50E40E94C22188230CF0C6
:1010900063C081010F5F1F4F27961FAF0EAF2797C9
:1010A0000830110509F458C0F801EE0FFF1FEE0FCC
:1010B000FF1F21E030E02C0F3D1FE20FF31F4080A7
:1010C00051806280738080A191A1A2A1B3A12596D5
:1010D0008CAF9DAFAEAFBFAF25974091FF0350914E
:1010E00000046091010470910204009103041091C6
:1010F0000404209105043091060485E893E073010F
:10110000620125968CAC9DACAEACBFAC25970E941D
:10111000A20D0E94312261967FAF6EAF6197409120
:10112000FF0350910004609101047091020400914A
:10113000030410910404209105043091060485E80D
:1011400093E025968CAC9DACAEACBFAC25970E94CD
:101150006D0E2B013C0104C027963FAE2EAE2797A3
:101160008091F8039091F9036196CEACDFAC619762
:10117000C81AD90A9CE4C9169FEFD9062CF4A8E630
:10118000B1E0CA0EDB1E08C0B5EBCB16D10424F0CB
:10119000E8E9FEEFCE0EDF1EB601882777FD8095C9
:1011A000982F0E9464224B015C012F966CAD7DAD9F
:1011B0008EAD9FAD2F97A50194010E94FC207B016D
:1011C0008C0120E030E04AE755E40E947B231816AA
:1011D0005CF40F2EF0E0EF2EF0E0FF2EFAE70F2F79
:1011E000F5E41F2FF02D14C0C801B70120E030E056
:1011F0004AE755EC0E94C221882354F40F2EF0E0F8
:10120000EF2EF0E0FF2EFAE70F2FF5EC1F2FF02D59
:10121000C801B70126E636E646E65FE30E9486236C
:101220002F966CAF7DAF8EAF9FAF2F97C501B401E6
:101230002DEC3CEC4CEC5DE30E9486237B018C01A1
:101240002F966CAD7DAD8EAD9FAD2F972AE037ED1B
:1012500043E25CE30E9486239B01AC01C801B70115
:101260000E94FC200E94E9230E9431226093FE0329
:101270006B3F24F4FBEFF093FE0306C0663024F0CE
:1012800045E0E42EE092FE036091FE0304E6600276
:10129000B001112464527A4F86E693E00E94E4176D
:1012A0000E94EC1B2B962CAD3DAD4EAD5FAD2B9748
:1012B000205F384D4F4F5F4F2617370748075907B4
:1012C00008F046CE0E94821A2DB73EB72951304011
:1012D0000FB6F8943EBF0FBE2DBF0DB71EB70F5F00
:1012E0001F4FE1E0ADB7BEB71196EC93E3E3F2E038
:1012F000D8011296FC93EE93119713966D937D93FC
:101300008D939C9316978091F8039091F90318960A
:101310009C938E9317971A96DC92CE921997809190
:10132000FC03992787FD90951C969C938E931B97A1
:101330008091FD03992787FD90951E969C938E932F
:101340001D978091FE03992787FD909550969C9359
:101350008E931F972796EEADFFAD27975296FC937D
:10136000EE9351976196EEACFFAC61975496FC9268
:10137000EE925397C301B2010E943122D8015596D3
:101380006D937D938D939C9358970E943F04EDB786
:10139000FEB779960FB6F894FEBF0FBEEDBF8AEE8A
:1013A00095E06AE872E00E94C11D4091FF035091F0
:1013B000000460910104709102048AEE95E025E03A
:1013C00030E00E94A81E8AEE95E06FE872E00E946D
:1013D000C11D409103045091040460910504709173
:1013E00006048AEE95E025E030E00E94A81E8AEE11
:1013F00095E065E972E00E94C11D27960EAD1FAD14
:101400002797000F111F000F111F21E0E22EF12C72
:10141000EC0EFD1E0E0D1F1DD8014D915D916D91BD
:101420007C918AEE95E025E030E00E94A81E8AEECD
:1014300095E06DE972E00E94C11DF80140A151A143
:1014400062A173A18AEE95E025E030E00E94A81E1B
:101450008AEE95E065EA72E00E94C11D8AEE95E091
:101460002F964CAD5DAD6EAD7FAD2F9722E030E095
:101470000E94AB1E0E94EC1BAC01CB01DA012B9643
:101480008CAF9DAFAEAFBFAF2B9762CDFC012FEFFE
:101490003FEF4FEF5FEF208331834283538310860A
:1014A0001186128613868FEF99ECAAE9BBE3808B35
:1014B000918BA28BB38B808F918FA28FB38F80A3E0
:1014C00091A3A2A3B3A380A791A7A2A7B3A780AB20
:1014D00091ABA2ABB3AB20AF31AF42AF53AFE05C47
:1014E000FF4F8FEF90E09183808334962083318388
:1014F00042835383389620833183428353833896C3
:1015000011921082709682E0819311921192119241
:1015100011921192119211921192119211821082D4
:10152000799710820895EF92FF920F931F93CF93B4
:10153000DF939C01EE24FC01EA5AFF4F80818D323B
:1015400031F4EE24E394E901C95ADF4F01C0EF0101
:101550008E0120E030E040E050E018C0CA01B9013F
:101560002AE030E040E050E00E94A7242F2D3327EE
:1015700027FD3095432F532F20533040404050409B
:10158000260F371F481F591F0F5F1F4FF801F080AC
:101590008F2D80538A3010F3CA01B90124E630E060
:1015A00040E050E00E94A7249B01AC0101C02196BD
:1015B0009881892F80538A30D0F39E3229F5998102
:1015C000892F80538A3000F58AE09802C0011124E7
:1015D000805E9140AA2797FDA095BA2F280F391F4A
:1015E0004A1F5B1F9A81892F80538A3068F4892FA4
:1015F000992787FD9095C097AA2797FDA095BA2FA8
:10160000280F391F4A1F5B1FEE2039F05095409577
:10161000309521953F4F4F4F5F4FB901CA01DF9180
:10162000CF911F910F91FF90EF9008954F925F928D
:101630006F927F928F929F92AF92BF92CF92DF92E2
:10164000EF92FF920F931F93CF93DF9326E5822EA5
:10165000912C880E991EE40120E030E040E050E03B
:1016600017C0CA01B9012AE030E040E050E00E9412
:10167000A724212F332727FD3095432F532F2053A5
:10168000304040405040260F371F481F591F2196B9
:101690001881812F80538A3020F3722E632E542EAE
:1016A000452EB901CA0124E630E040E050E00E9436
:1016B000E52420EA36E841E050E00E94A7245B01DF
:1016C0006C0103C00894811C911CD4019C91892F4A
:1016D00080538A30B8F39E3269F580E1E82E87E2C4
:1016E000F82E012D112D1DC0332727FD30952053D5
:1016F0003040442737FD4095542FC801B7010E9460
:10170000A724A60EB71EC81ED91EC801B7012AE01D
:1017100030E040E050E00E94E524C901DA017C019C
:101720008D010894811C911CF4012081822F80532B
:101730008A30D0F283E090E0A0E0B0E0A80EB91EBD
:10174000CA1EDB1EC601B50126E030E040E050E0D5
:101750000E94E52479018A01672D762D852D942D2F
:1017600024E630E040E050E00E94E524CA01B901DF
:1017700020E432E44FE050E00E94A724E60EF71E7A
:10178000081F191FB701C801DF91CF911F910F9159
:10179000FF90EF90DF90CF90BF90AF909F908F9091
:1017A0007F906F905F904F9008950F931F93CF930A
:1017B000DF93FC01EB0189016115710541F0808522
:1017C0009185A285B38588839983AA83BB834115BC
:1017D000510549F080819181A281B381EA0188831A
:1017E0009983AA83BB830115110511F1EF01CC5B2D
:1017F000DF4F88819981AA81BB818F5F9F4FAF4F57
:10180000BF4F29F42FEF3FEF4FEF5FEF0CC00E9467
:10181000EC1B9B01AC0188819981AA81BB81281BAB
:10182000390B4A0B5B0BE801288339834A835B83BE
:10183000DF91CF911F910F9108952F923F924F9278
:101840005F926F927F928F929F92AF92BF92CF9250
:10185000DF92EF92FF920F931F93DF93CF93CDB759
:10186000DEB728970FB6F894DEBF0FBECDBF3B01A1
:101870002A0119019401BE016F5F7F4FAE014B5FDA
:101880005F4F0E94D50B61147104B9F069817A81B0
:101890008B819C8124E630E040E050E00E94E5240A
:1018A000613571051CF420ED37E002C02CE637E00D
:1018B000260F371FF3013183208341145104A1F017
:1018C00069817A818B819C8124E630E040E050E0A0
:1018D0000E94E524CA01B90124E630E040E050E06E
:1018E0000E94E524F20160832114310461F06981D2
:1018F0007A818B819C8120E137E240E050E00E94B8
:10190000E524F10120830115110561F06D817E81CF
:101910008F81988520E432E44FE050E00E94E52476
:10192000F8012083E114F104A1F06D817E818F81A3
:10193000988520E137E240E050E00E94E524CA01AA
:10194000B90124E630E040E050E00E94E524F701D0
:101950006083C114D104A1F06D817E818F8198854F
:1019600024E630E040E050E00E94E524CA01B901DD
:1019700024E630E040E050E00E94E524F601608378
:10198000A114B10461F06D817E818F81988524E678
:1019900030E040E050E00E94E524F50160832896A5
:1019A0000FB6F894DEBF0FBECDBFCF91DF911F9170
:1019B0000F91FF90EF90DF90CF90BF90AF909F90EE
:1019C0008F907F906F905F904F903F902F900895F1
:1019D0000F931F93CF93DF93FC01EB0189016115F6
:1019E000710541F080899189A289B389888399839F
:1019F000AA83BB834115510549F0808D918DA28D3D
:101A0000B38DEA0188839983AA83BB8301151105ED
:101A100011F1EF01C45BDF4F88819981AA81BB81FD
:101A20008F5F9F4FAF4FBF4F29F42FEF3FEF4FEF27
:101A30005FEF0CC00E94EC1B9B01AC018881998177
:101A4000AA81BB81281B390B4A0B5B0BE801288359
:101A500039834A835B83DF91CF911F910F91089562
:101A6000EF92FF920F931F93DF93CF93CDB7DEB723
:101A700028970FB6F894DEBF0FBECDBF8B017A0159
:101A8000BE016F5F7F4FAE014B5F5F4F0E94E80C5E
:101A900069817A818B819C816F3F29EC72072AE9E9
:101AA00082072BE3920729F4E0E070E08AE764E420
:101AB0000AC00E94642220E034E244E759E40E9414
:101AC000C921E62F692F2E2F372F482F562FC901F6
:101AD000DA01F80180839183A283B38389819A819B
:101AE000AB81BC818F5F994CAA49BB4329F4E0E0EC
:101AF00070E08AE764E40EC06D817E818F819885F5
:101B00000E94642220E034E244E759E40E94C921A3
:101B1000E62F692F2E2F372F482F562FC901DA01B4
:101B2000F70180839183A283B38328960FB6F8943C
:101B3000DEBF0FBECDBFCF91DF911F910F91FF9000
:101B4000EF9008954F925F926F927F928F929F9243
:101B5000AF92BF92CF92DF92EF92FF920F931F93BB
:101B6000DF93CF93CDB7DEB760970FB6F894DEBFA3
:101B70000FBECDBF2A013B01A9019801C501B401E7
:101B80000E94FB2025E33AEF4EE85CE30E948623A7
:101B90004B015C01C301B20125E33AEF4EE85CE37F
:101BA0000E9486232B013C01C701B60125E33AEFD1
:101BB0004EE85CE30E9486236D877E878F87988B33
:101BC000B401C5010E94092469877A878B879C87A5
:101BD0002D853E854F855889B901CA010E94C621CD
:101BE0006D837E838F839887B201C3010E9409248D
:101BF00069837A838B839C83B401C5010E94C621CB
:101C00007B018C0169817A818B819C812D813E8150
:101C10004F8158850E948623A80197010E94862340
:101C20005B016C01B201C3010E94C6217B018C01E2
:101C30002D853E854F855889B901CA010E94092426
:101C40009B01AC01C801B7010E948623A601950142
:101C50000E94FB207B018C0169857A858B859C85A0
:101C60002D813E814F8158850E9486239701A801CE
:101C70000E946F217B018C0120E030E040E050E0C9
:101C80000E94C221882354F4C801B7012BED3FE024
:101C900049EC50E40E94FC207B018C01C801B70193
:101CA00021EE3EE245E652E40E94862360960FB69E
:101CB000F894DEBF0FBECDBFCF91DF911F910F9182
:101CC000FF90EF90DF90CF90BF90AF909F908F905C
:101CD0007F906F905F904F9008952F923F924F9218
:101CE0005F926F927F928F929F92AF92BF92CF92AC
:101CF000DF92EF92FF920F931F93DF93CF93CDB7B5
:101D0000DEB760970FB6F894DEBF0FBECDBF2A01D5
:101D10003B01C901B801A50194010E94FB2025E304
:101D20003AEF4EE85CE30E9486234B015C01C5015B
:101D30000E9409246D877E878F87988BB401C50127
:101D40000E94C62169877A878B879C87C301B2016D
:101D500025E33AEF4EE85CE30E9486234B015C01E9
:101D6000C701B60125E33AEF4EE85CE30E94862303
:101D70007B018C01B401C5010E9409246D837E831F
:101D80008F839887B401C5010E94C62169837A8335
:101D90008B839C83B701C8010E9409241B012C017D
:101DA000B701C8010E94C6215B016C0169817A817B
:101DB0008B819C81A20191010E9486237B018C0171
:101DC0006D817E818F819885A60195010E94862371
:101DD00029853A854B855C850E9486239B01AC0151
:101DE000C801B7010E94FB209B01AC010E94862321
:101DF0007B018C01C601B5012D853E854F85588933
:101E00000E9486239B01AC010E9486239B01AC01AA
:101E1000C801B7010E94FC200E9413243B014C0121
:101E20006D817E818F819885A20191010E94862318
:101E30007B018C0169817A818B819C81A60195014E
:101E40000E94862329853A854B855C850E948623DE
:101E50009B01AC01C801B7010E94FC209B01AC01B1
:101E6000C401B3010E946F2126E73BE742EC5AE42C
:101E70000E94862360960FB6F894DEBF0FBECDBFDA
:101E8000CF91DF911F910F91FF90EF90DF90CF9056
:101E9000BF90AF909F908F907F906F905F904F908A
:101EA0003F902F900895FF920F931F93CF93DF934E
:101EB000EC01CB5ADF4F8881C555D040882309F407
:101EC000E9C0CA5ADF4F9881C655D040892F815446
:101ED000863038F4292F332727FD3095275330409B
:101EE0000CC0292F332727FD30959156963018F4D2
:101EF0002755304002C020533040C95ADF4F488137
:101F0000C755D040842F8154863030F4842F9927D0
:101F100087FD9095C7970BC0842F992787FD9095D3
:101F20004156463018F48755904001C0C09754E0A0
:101F3000220F331F5A95E1F7982F920FCC5ADF4F9B
:101F40008881C455D040981709F09BC0C859DF4F0D
:101F50008881C856D040882309F49EC1FE01E35908
:101F6000FF4F80819181019691838083FE01EC5B1C
:101F7000FF4FC85BDF4F88819981AA81BB81C8541C
:101F8000D04080839183A283B383FE01E45BFF4F43
:101F9000C05BDF4F88819981AA81BB818083918357
:101FA000A283B38365968881C556D0408823A1F16A
:101FB000813009F064C08C819D81AE81BF818883AE
:101FC0009983AA83BB838C859D85AE85BF858887D1
:101FD0009987AA87BB878C899D89AE89BF89888BA1
:101FE000998BAA8BBB8B8C8D9D8DAE8DBF8D888F71
:101FF000998FAA8FBB8F8CA59DA5AEA5BFA588A7DD
:1020000099A7AAA7BBA78CA99DA9AEA9BFA988AB70
:1020100099ABAAABBBAB33C08CA19DA1AEA1BFA1B4
:1020200088A399A3AAA3BBA38C819D81AE81BF8104
:1020300088839983AA83BB838C899D89AE89BF8954
:10204000888B998BAA8BBB8B8C8D9D8DAE8DBF8D14
:10205000888F998FAA8FBB8FFE01E05CFF4FCE5B0C
:10206000DF4F88819981C254D040918380838CADA9
:102070009DADAEADBFAD88AF99AFAAAFBBAF81E0AC
:102080000CC1FE01E159FF4F80819181019691833E
:10209000808302C1CA59DF4F8881C656D040882349
:1020A00021F59E012A5A3F4FD901E8EDF2E002C026
:1020B000119631969C91992339F080819817C1F33C
:1020C000D901EEEDF2E006C0CB59DF4F81E0EEC062
:1020D000119631969C91992321F080819817C1F334
:1020E000E2C0CB59DF4F1882D7C0CB59DF4F3881C0
:1020F000C556D040323009F4CFC0CA5ADF4F2881CC
:10210000C655D040222309F4C7C0E32FF0E045E0D4
:10211000EE0FFF1F4A95E1F790E0E82BF92B31977E
:10212000E932F10508F0B8C0EC5CFF4FEE0FFF1F7D
:102130000590F491E02D0994CE010E94930A6C83DE
:102140007D838E839F830E94EC1BC85BDF4F13C08F
:10215000FE01E859FF4F1082213409F09DC07FC075
:10216000CE010E94160B6C8B7D8B8E8B9F8B0E94F9
:10217000EC1BC05BDF4F688379838A839B838CC0B1
:10218000233509F089C08C899D89AE89BF89B095B6
:10219000A095909581959F4FAF4FBF4F8C8B9D8B96
:1021A000AE8BBF8B79C0CE010E94160B6C8F7D8FDA
:1021B0008E8F9F8F71C0273509F06EC08C8D9D8DDD
:1021C000AE8DBF8DB095A095909581959F4FAF4FE7
:1021D000BF4F8C8F9D8FAE8FBF8F5EC0CE010E9490
:1021E000930A6CA77DA78EA79FA756C0CE010E9419
:1021F000930A6CAB7DAB8EAB9FAB4EC08E010A5A7F
:102200001F4F20E030E040E050E018C0CA01B901A3
:102210002AE030E040E050E00E94A7242F2D332731
:1022200027FD3095432F532F2053304040405040DE
:10223000260F371F481F591F0F5F1F4FF801F080EF
:102240008F2D80538A3010F32C873D874E875F8710
:1022500023C0FE01E859FF4F10822133ECF081E0EA
:1022600080831AC0CE018A5A9F4F0E942C01FE0122
:10227000EE5BFF4F808311820FC0CE010E94930A54
:102280006CAF7DAF8EAF9FAF07C0CE010E94930AA7
:102290006CA37DA38EA39FA380E0DF91CF911F91BC
:1022A0000F91FF900895CB59DF4F82E08883F4CFE0
:1022B0001F93CF93DF93EC01162FFC01E759FF4FDB
:1022C00080819181A281B3810196A11DB11D80837E
:1022D0009183A283B3836432A1F1DE01A959BF4F78
:1022E00065322CF46A3069F06D30C9F50AC06A3283
:1022F00041F06C32A1F5FE01EC5AFF4F8081862738
:1023000080838C918F3010F090E00AC0FE01E80FBE
:10231000F11DEA5AFF4F1082CE010E94530F982FF1
:10232000FE01EA59FF4F80818F5F8083C959DF4FDB
:102330001882FE01729710821A3251F581E0808373
:1023400027C0C959DF4F18821A9262971882619686
:1023500082E08883609718826396188218C08C91F7
:102360008E3040F4FE01E80FF11DEA5AFF4F108352
:102370008F5F8C93CB5ADF4F8881C555D04088231F
:1023800031F4FE01EC5AFF4F80818127808390E079
:10239000892FDF91CF911F91089520913A0430E069
:1023A00080913904281B3109C901089540913904ED
:1023B00080913A04481718F02FEF3FEF0AC0E42F3E
:1023C000F0E0E75EFB4F8081282F30E04F5F4093C5
:1023D0003904C9010895E091390480913A04E8175D
:1023E00018F0EFEFFFEF06C0F0E0E75EFB4F8081F3
:1023F000E82FF0E0CF010895089510926104109243
:10240000600488EE93E0A0E0B0E0809362049093D3
:102410006304A0936404B09365048EE293E0909308
:102420005F0480935E040895CF92DF92EF92FF9253
:102430000F931F93CF93DF937C016B018A018091EF
:102440005D048823A1F0C0E0D0E00DC0D701ED917C
:10245000FC91D601AC0FBD1F0190F081E02DC701AA
:102460006C9109952196C017D10780F304C0CB0168
:10247000642F0E948012C801DF91CF911F910F91AC
:10248000FF90EF90DF90CF900895DF93CF930F925E
:10249000CDB7DEB7FC01698380915D048823C9F064
:1024A00080915C04803238F081E090E093838283F5
:1024B00020E030E015C080915B04E82FF0E0E55C9F
:1024C000FB4F998190838F5F80935B0480935C04C2
:1024D00005C0CE01019661E00E94801221E030E04B
:1024E000C9010F90CF91DF91089510923904109295
:1024F0003A0410925B0410925C040E942C1408951C
:10250000482F613210F081E0089580916A04843090
:1025100011F082E008956093B504A4E9B4E0842F3B
:102520009C01F90102C081918D938E2F841B861727
:10253000D0F380E008951F920F920FB60F921124EE
:102540002F933F934F935F936F937F938F939F93BB
:10255000AF93BF93EF93FF938091B90090E0887F92
:1025600090708036910509F4F2C081369105CCF562
:102570008832910509F47BC089329105B4F4803129
:10258000910509F46FC0813191053CF4009709F47D
:1025900047C1089709F04FC165C08831910509F41A
:1025A00066C0809709F047C182C08034910509F464
:1025B000A4C08134910544F48033910509F482C0AC
:1025C000C89709F038C189C08035910509F489C0E0
:1025D0008835910509F496C08834910509F02BC11E
:1025E000AEC08839910509F413C189399105ECF41D
:1025F0008837910509F4ABC0893791054CF48836CA
:10260000910509F4A4C08037910509F014C19FC059
:102610008838910509F4FCC08039910509F49DC002
:102620008038910509F007C198C0803B910509F4F5
:10263000C6C0813B91054CF4803A910509F49FC0D6
:10264000883A910509F0F7C0BAC0803C910509F4B9
:10265000E3C0883C910509F4DFC0883B910509F08F
:10266000EAC0C2C080916B048093BB00CFC0909140
:10267000920480919304981768F490919204E92F42
:10268000F0E0EE58FB4F80818093BB009F5F9093FA
:102690009204BCC080916C04882309F44BC085ED82
:1026A0008093BC008091BC0084FDFCCFC2C080E25E
:1026B0008093D70485ED8093BC008091BC0084FD9D
:1026C000FCCFB7C080E38093D70485ED8093BC0036
:1026D0008091BC0084FDFCCFACC088E38093D7041C
:1026E0009BC0809192049091BB00E82FF0E0EE58DF
:1026F000FB4F90838F5F809392049091920480911E
:10270000930482C0809192049091BB00E82FF0E086
:10271000EE58FB4F90838F5F8093920480916C04FE
:10272000882341F085ED8093BC008091BC0084FD3E
:10273000FCCF7FC081E080936D0484EA6EC085ED9C
:102740008093BC008091BC0084FDFCCF72C083E00C
:1027500080936A041092D60459C08091D6048032C6
:1027600008F056C08091D6049091BB00E82FF0E0AD
:10277000EA54FB4F90838F5F8093D60447C08091CB
:10278000D604803230F4E091D604F0E0EA54FB4FF6
:10279000108285ED8093BC008091BC0084FDFCCF4D
:1027A00010926A046091D604E0917004F091710473
:1027B00086EB94E070E009951092D6042DC084E079
:1027C00080936A041092B4041092B504E0916E04F0
:1027D000F0916F0409958091B504882329F481E074
:1027E0008093B504109294049091B404E92FF0E022
:1027F000EC56FB4F80818093BB009F5F9093B404A5
:102800009091B4048091B504981710F485EC01C040
:1028100085E88093BC000FC085EC8093BC0009C0A4
:102820001092D70485ED8093BC008091BC0084FD9C
:10283000FCCF10926A04FF91EF91BF91AF919F91ED
:102840008F917F916F915F914F913F912F910F9059
:102850000FBE0F901F90189510926A0481E080932C
:102860006C0410926D0482E161E00E94501B83E1D0
:1028700061E00E94501BE9EBF0E080818E7F808355
:1028800080818D7F808388E48093B80085E4809385
:10289000BC0008950F931F93CF93DF93FC01738DBA
:1028A00076957170A685B7859585772329F08C91EB
:1028B000892309F454C004C08C91892309F04FC0C6
:1028C0008389948920E001972FEF8F3F9207D9F7F2
:1028D000C589D689A685B785158560E031E040E0D9
:1028E00050E000E0CE01202F01972FEF8F3F92079D
:1028F000D9F78C91812311F0632B03C0832F80952E
:102900006823330F4F5F5F4F4830510559F7878970
:10291000908D20E001972FEF8F3F9207D9F771112B
:10292000609580911A0520911B0590E001968F73A8
:10293000907030E08217930779F0E0911A05F0E08B
:10294000E652FB4F608380911A0590E001968F73E9
:10295000907080931A0503C0838D8160838FDF910F
:10296000CF911F910F9108951F920F920FB60F9262
:1029700011242F933F934F935F936F937F938F9384
:102980009F93AF93BF93EF93FF938091D80490915F
:10299000D904009711F00E944A14FF91EF91BF9162
:1029A000AF919F918F917F916F915F914F913F91E7
:1029B0002F910F900FBE0F901F9018951F920F929E
:1029C0000FB60F9211242F933F934F935F936F9302
:1029D0007F938F939F93AF93BF93EF93FF938091D8
:1029E000D8049091D904009711F00E944A14FF91E5
:1029F000EF91BF91AF919F918F917F916F915F9177
:102A00004F913F912F910F900FBE0F901F901895EF
:102A10001F920F920FB60F9211242F933F934F9353
:102A20005F936F937F938F939F93AF93BF93EF9336
:102A3000FF938091D8049091D904009711F00E94DF
:102A40004A14FF91EF91BF91AF919F918F917F9128
:102A50006F915F914F913F912F910F900FBE0F900B
:102A60001F901895CF92DF92EF92FF920F931F93D2
:102A7000CF93DF93EC017A018B011A8E198E188E99
:102A80001F8A1E8A1D8A1C8A1B8A20E030E0690189
:102A9000CC0CDD1CC20ED31EB601660F771F660F6D
:102AA000771FAB014B5F5E4FFA0185919591A59120
:102AB000B4918E159F05A007B107E9F4FB01E75F0C
:102AC000FE4F859194919C8B8B8BFB01E55FFE4FB4
:102AD000859194919E8B8D8BFB01E35FFE4F8591D9
:102AE0009491988F8F8BFB01E15FFE4F85919491BC
:102AF0009A8F898F06C02F5F3F4F2D30310509F027
:102B0000C6CF8F89988D892B09F449C04C854631F1
:102B100008F03DC090916800483010F484E005C092
:102B20004E3010F082E001C081E0892B8093680074
:102B3000483028F4EDE6F0E0ADE6B0E00BC04E30F2
:102B400028F0ECE6F0E0ACE6B0E004C0EBE6F0E044
:102B5000ABE6B0E05081483040F481E090E002C044
:102B6000880F991F4A95E2F710C0242F30E04E30AD
:102B700018F42850304002C02E50304081E090E0E0
:102B800002C0880F991F2A95E2F7852B8C93898DB7
:102B90009A8D20E001972FEF8F3F9207D9F7809110
:102BA000D8049091D9048C179D0781F08B8D8E7F6E
:102BB0008B8F9FB7F89410921A0580911A05809315
:102BC0001B05D093D904C093D8049FBFDF91CF9148
:102BD0001F910F91FF90EF90DF90CF900895FC012F
:102BE0004485463180F5483028F4EDE6F0E0ADE666
:102BF000B0E00BC04E3028F4EBE6F0E0ABE6B0E01E
:102C000004C0ECE6F0E0ACE6B0E05081483040F4BF
:102C100081E090E002C0880F991F4A95E2F710C04A
:102C2000242F30E04E3018F42850304002C02E508F
:102C3000304081E090E002C0880F991F2A95E2F7AA
:102C4000809585238C930895FC018EE393E0918316
:102C50008083CF010E94EF1508952091D804309110
:102C6000D9042817390731F490911B0580911A0572
:102C7000981719F42FEF3FEF0FC0E0911B05F0E01C
:102C8000E652FB4F208180911B0590E001968F73E7
:102C9000907080931B0530E0C90108952091D804FD
:102CA0003091D9042817390719F020E030E00EC020
:102CB00080911A0520911B0590E0805C9F4F821B3C
:102CC000910960E470E00E94D2249C01C90108953A
:102CD0000F931F93DC0159968D919C915A97892BE4
:102CE00049F481E090E013969C938E93129720E034
:102CF00030E097C00FB7F8945B968C915B97519634
:102D0000ED91FC91529750962C91509781FF8DC078
:102D10008081822B808359968D919C915A9705963C
:102D200020E001972FEF8F3F9207D9F75B968C91A8
:102D30005B9781FF35C031E040E050E070E010E08B
:102D4000832F90E0862397235196ED91FC91529723
:102D500050962C915097892B29F08081209528231B
:102D6000208303C08081822B808359968D919C9112
:102D70005A97212F01972FEF8F3F9207D9F7330FE3
:102D80004F5F5F4F48305105D9F65196ED91FC9158
:102D90005297908150968C9150978095892333C09B
:102DA00031E040E050E070E010E0832F90E08623B7
:102DB00097235196ED91FC91529750962C915097F4
:102DC000892B21F08081822B808304C08081209513
:102DD0002823208359968D919C915A97212F0197F2
:102DE0002FEF8F3F9207D9F7330F4F5F5F4F483078
:102DF0005105D9F65196ED91FC91529780815096EC
:102E00009C915097892B80830FBF59968D919C91EF
:102E10005A9720E001972FEF8F3F9207D9F721E0D3
:102E200030E0C9011F910F910895808120952823DA
:102E3000208371CF2091D8043091D9042817390705
:102E400049F49FB7F89410921A0580911A0580935F
:102E50001B059FBF08952091D8043091D9042817ED
:102E6000390731F490911B0580911A05981719F4D0
:102E70002FEF3FEF0AC0E0911B05F0E0E652FB4F59
:102E80008081282F332727FD3095C90108951F938E
:102E9000CF93DF93EC01162F862F60E00E94111B69
:102EA0008B8D81FD04C0812F61E00E94501B1C8727
:102EB000212F30E0C9018D529E4FFC0184918D87F6
:102EC00021543E4FF9016491E62FF0E0EE0FFF1F11
:102ED000EB54FE4F859194919F878E87DF91CF9120
:102EE0001F9108951F93CF93DF93EC01162F862F28
:102EF00061E00E94111B60E08B8D81FF61E0812FFA
:102F00000E94501B212F30E0C9018D529E4FFC01C1
:102F10008491888B21543E4FF9016491E62FF0E0B3
:102F2000EE0FFF1FE555FE4F859194919A8B898B8B
:102F3000DF91CF911F910895FF920F931F938C0102
:102F4000F62EFC011382128288EE93E0A0E0B0E03E
:102F500084839583A683B7838EE393E091838083F4
:102F6000148A138A168A158A108E178A128E118E69
:102F7000838D2170220F8C7F822B838FC801642F59
:102F80000E947217C8016F2D0E9447171F910F9161
:102F9000FF900895FC0180911C058C3090F4808393
:102FA0008F5F80931C05815090E0FC01EE0FFF1FA6
:102FB000E80FF91FE35EFA4F88EB9BE09283818371
:102FC00008958FEF80830895FC0120812C30B8F59F
:102FD0008181992787FD909548E850E0481B590B5F
:102FE000440F551F440F551F6417750784F08281E5
:102FF000992787FD909548E552E0481B590B440FEF
:10300000551F440F551F641775070CF4AB01425050
:103010005040CA01AA2797FDA095BA2F880F991F83
:10302000AA1FBB1F4FB7F89430E0F901EE0FFF1F46
:10303000E20FF31FE35EFA4F928381834FBF08953F
:10304000CF92DF92EF92FF921F93CF93DF93EC0129
:10305000162F7A01690188818C3008F064C0862FB0
:1030600061E00E94111B888190E0FC01EE0FFF1FC0
:10307000E80FF91FE35EFA4F1F738081807C812B7C
:10308000808380E292E08E199F0964E070E00E94E4
:10309000D224698380E699E08C199D0964E070E090
:1030A0000E94D2246A83A8818A2F6CE00E94C624E1
:1030B000682F70E0AB01440F551F460F571F440F98
:1030C000551F440F551F20E030E0C901840F951FA4
:1030D000FC01EE0FFF1FE80FF91FE35EFA4F80813E
:1030E00086FD15C02F5F3F4F2C30310571F724C08E
:1030F0001092800082E080938100109285001092EF
:103100008400B19A80916F00826080936F008A2F53
:1031100090E0FC01EE0FFF1FE80FF91FE35EFA4F8E
:103120008081806480838881DF91CF911F91FF909F
:10313000EF90DF90CF900895672BD1F2E8CF1F92E8
:103140000F920FB60F9211242F933F934F935F93DB
:103150006F937F938F939F93AF93BF93EF93FF935F
:103160008091410587FF05C0109285001092840070
:103170002BC020914105332727FD309580911C05F8
:1031800090E02817390704F580914105992787FDBC
:103190009095FC01EE0FFF1FE80FF91FE35EFA4F59
:1031A000808186FF11C080914105992787FD909508
:1031B000FC01EE0FFF1FE80FF91FE35EFA4F80815D
:1031C0008F7360E00E94501B809141058F5F809358
:1031D000410520914105332727FD309580911C053D
:1031E00090E0281739070CF04EC0809141058C30D3
:1031F0000CF049C0209184003091850080914105F8
:10320000992787FD9095FC01EE0FFF1FE80FF91F2E
:10321000E35EFA4F81819281280F391F3093890034
:103220002093880080914105992787FD9095FC01A6
:10323000EE0FFF1FE80FF91FE35EFA4F808186FF54
:103240002BC080914105992787FD9095FC01EE0FD9
:10325000FF1FE80FF91FE35EFA4F80818F7361E073
:103260000E94501B19C080E49CE905C08091840035
:1032700090918500049690938900809388008FEF49
:103280008093410509C08091840090918500049647
:1032900080549C4940F3EACFFF91EF91BF91AF91E9
:1032A0009F918F917F916F915F914F913F912F915E
:1032B0000F900FBE0F901F9018954F925F926F92D4
:1032C0007F928F929F92AF92BF92CF92DF92EF92B6
:1032D000FF920F931F93CF93DF934C01DC0116965F
:1032E0001C91612F70E080E090E020E833E341EE34
:1032F00051E00E94A7245B016C0122EB37E0E12F33
:10330000F0E0EE54F84F1DC0C90183709070892B16
:10331000B1F4C90164E670E00E94D224892B39F42B
:10332000C90160E971E00E94D224892B41F480E850
:1033300091E5A1E0B0E0A80EB91ECA1EDB1E2F5F0A
:103340003F4F2E173F0701F7D40115968C91482E59
:103350005524C90164E670E00E94D2247C01C901B1
:1033600060E971E00E94D2248C01C1E0D0E093E0DA
:10337000692E712C6222732227C0C230D10591F4CC
:103380006114710479F4E114F10419F401151105C3
:1033900049F480E89BE3A6E2B0E0A80EB91ECA1E7D
:1033A000DB1E11C0FE01E75BFC4F608170E080E036
:1033B00090E020E831E541E050E00E94A724A60E0D
:1033C000B71EC81ED91E2196C415D505B4F2D40166
:1033D00012966C9170E080E090E020E13EE040E0E9
:1033E00050E00E94A7247B018C01F401618170E010
:1033F00080E090E02CE330E040E050E00E94A72421
:10340000E60EF71E081F191FD4018C91E80EF11C5F
:10341000011D111D14966C9170E061507040882759
:1034200077FD8095982F20E831E541E050E00E943B
:10343000A724E60EF71E081F191FEA0CFB1C0C1D23
:103440001D1DB701C801DF91CF911F910F91FF9012
:10345000EF90DF90CF90BF90AF909F908F907F9034
:103460006F905F904F900895609344057093450569
:1034700080934605909347052091260330912703BA
:103480004091280350912903260F371F481F591FC9
:10349000209348053093490540934A0550934B05C6
:1034A00082E090E090934D0580934C050E94EC1BC8
:1034B0006093550570935605809357059093580572
:1034C0000895EF92FF920F93F701E436F1051CF097
:1034D000E25BF74001C07E96E093540500935305EC
:1034E000209352058093500560934F0540934E05FD
:1034F0008EE495E00E945D190E94341A0F91FF90AE
:10350000EF900895EF92FF920F931F931CC02F5FCF
:103510003F4F4F4F5F4F20934405309345054093F5
:1035200046055093470588EE93E0A0E0B0E0E80E32
:10353000F91E0A1F1B1FE0925505F09256050093D5
:103540005705109358050E94EC1BE0905505F0902C
:10355000560500915705109158056E197F09800B8B
:10356000910B2091440530914505409146055091BD
:103570004705685E73408040904048F6809148055A
:1035800090914905A0914A05B0914B05281739073C
:103590004A075B07C8F1E0914205F0914305309777
:1035A00099F10995611571058105910519F00E9440
:1035B000341A2AC08091260390912703A0912803F2
:1035C000B09129032091440530914505409146056D
:1035D00050914705820F931FA41FB51F8093480584
:1035E00090934905A0934A05B0934B0520E030E045
:1035F00080914C0590914D05892B11F021E030E030
:1036000030934D0520934C0560914405709145051C
:1036100080914605909147051F910F91FF90EF9083
:103620000895CF93DF93482F50E0CA018D529E4FEB
:10363000FC01349141545E4FFA018491882369F171
:1036400090E0880F991FFC01EF55FE4FA591B491B2
:10365000FC01E555FE4FC591D491662351F42FB777
:10366000F8948C91932F909589238C93888189234A
:103670000BC0623061F42FB7F8948C91932F909522
:1036800089238C938881832B88832FBF06C09FB7A3
:10369000F8948C91832B8C939FBFDF91CF910895E9
:1036A000482F50E0CA0189519E4FFC012491CA0164
:1036B0008D529E4FFC01949141545E4FFA0134911A
:1036C000332309F440C0222351F1233071F0243018
:1036D00028F42130A1F0223011F514C02630B1F0C9
:1036E0002730C1F02430D9F404C0809180008F7756
:1036F00003C0809180008F7D8093800010C084B5CE
:103700008F7702C084B58F7D84BD09C08091B000E1
:103710008F7703C08091B0008F7D8093B000E32F3E
:10372000F0E0EE0FFF1FE555FE4FA591B4912FB7C6
:10373000F894662321F48C919095892302C08C9192
:10374000892B8C932FBF08951F920F920FB60F9263
:1037500011242F933F938F939F93AF93BF938091A7
:103760005D0590915E05A0915F05B0916005309177
:1037700061050196A11DB11D232F2D5F2D3720F06E
:103780002D570196A11DB11D2093610580935D0504
:1037900090935E05A0935F05B093600580915905F5
:1037A00090915A05A0915B05B0915C050196A11D11
:1037B000B11D8093590590935A05A0935B05B09372
:1037C0005C05BF91AF919F918F913F912F910F9089
:1037D0000FBE0F901F9018958FB7F89420915D053C
:1037E00030915E0540915F05509160058FBFB90132
:1037F000CA0108959B01AC017FB7F89480915905E7
:1038000090915A05A0915B05B0915C0566B5A89BA7
:1038100005C06F3F19F00196A11DB11D7FBFBA2FE2
:10382000A92F982F8827860F911DA11DB11D62E039
:10383000880F991FAA1FBB1F6A95D1F7BC012DC025
:10384000FFB7F8948091590590915A05A0915B05B6
:10385000B0915C05E6B5A89B05C0EF3F19F0019655
:10386000A11DB11DFFBFBA2FA92F982F88278E0F3A
:10387000911DA11DB11DE2E0880F991FAA1FBB1F5A
:10388000EA95D1F7861B970B885E9340C8F22150CA
:1038900030404040504068517C4F21153105410572
:1038A000510571F60895789484B5826084BD84B51D
:1038B000816084BD85B5826085BD85B5816085BD2B
:1038C000EEE6F0E0808181608083E1E8F0E0108244
:1038D000808182608083808181608083E0E8F0E085
:1038E000808181608083E1EBF0E08081846080836F
:1038F000E0EBF0E0808181608083EAE7F0E08081A6
:103900008460808380818260808380818160808305
:103910008081806880831092C1000895CF92DF92E9
:10392000EF92FF920F931F93CF93DF937C016B0174
:103930008A01C0E0D0E00FC0D6016D916D01D701C2
:10394000ED91FC910190F081E02DC7010995C80F20
:10395000D91F015010400115110571F7CE01DF91FB
:10396000CF911F910F91FF90EF90DF90CF9008952E
:10397000DC01ED91FC910190F081E02D0995089515
:10398000EF92FF920F931F938C01DC01ED91FC915C
:103990000190F081E02D6DE009957C01D801ED9159
:1039A000FC910190F081E02DC8016AE009959C012D
:1039B0002E0D3F1DC9011F910F91FF90EF900895AB
:1039C000CF93DF93EC016115710519F420E030E02D
:1039D0000FC0DB010D900020E9F71197A61BB70B74
:1039E000E881F9810280F381E02DAD0109959C0108
:1039F000C901DF91CF9108954F925F927F928F928C
:103A00009F92AF92BF92CF92DF92EF92FF920F936D
:103A10001F93DF93CF93CDB7DEB7A1970FB6F8947E
:103A2000DEBF0FBECDBF2C01742ECB01223008F4B7
:103A30002AE019A231E2C32ED12CCC0EDD1E822E3B
:103A40009924AA24BB24672D752FA50194010E94F7
:103A5000E52479018A01C801B701A50194010E94FA
:103A6000A724472D461B0894C108D1084A3014F4F6
:103A7000405D01C0495CF6014083E114F104010599
:103A8000110521F07E2C5F2DC801DDCFC201B601EA
:103A90000E94E01CA1960FB6F894DEBF0FBECDBF0A
:103AA000CF91DF911F910F91FF90EF90DF90CF901A
:103AB000BF90AF909F908F907F905F904F900895B0
:103AC000DC012115310541F4ED91FC910190F0816B
:103AD000E02D642F099508950E94FC1C0895EF9233
:103AE000FF920F931F939A01E62EFF2400E010E04F
:103AF000B801A7010E94601D1F910F91FF90EF90E8
:103B00000895CF92DF92EF92FF920F931F93CF937E
:103B1000DF93EC016A017B012115310541F4E88155
:103B2000F9810190F081E02D642F09951FC02A30A2
:103B30003105D1F477FF17C0E881F9810190F08158
:103B4000E02D6DE209958C0144275527BA014C19E7
:103B50005D096E097F09CE012AE00E94FC1C9801D4
:103B6000280F391F04C02AE00E94FC1C9C01C901D7
:103B7000DF91CF911F910F91FF90EF90DF90CF9049
:103B800008950E94E01C08957F928F929F92AF92B9
:103B9000BF92CF92DF92EF92FF920F931F93CF933A
:103BA000DF934C017A018B01722ECB01BA01A8017F
:103BB00097010E946024882321F0C40168E173E02A
:103BC00021C0C0E0D0E057016801E894D7F8C601F1
:103BD000B5012FEF3FEF4FE75FE70E946024882396
:103BE00051F4C601B5012FEF3FEF4FE75FE70E94A9
:103BF000C221181614F0C1E0D0E0219739F0C401B9
:103C00006CE173E00E94E01CEC0193C0C801B701B5
:103C10002FEF3FEF4FE75FE40E947B23181654F02D
:103C2000C801B7012FEF3FEF4FE75FEC0E94C221C1
:103C3000882324F4C40160E273E0E4CFC801B70133
:103C400020E030E040E050E00E94C22187FD03C048
:103C5000C0E0D0E00EC0D401ED91FC910190F08164
:103C6000E02DC4016DE20995EC0117FB109517F9E1
:103C7000109520E030E040E05FE3DD240BC0CA0196
:103C8000B90120E030E040E251E40E94C9219B01EB
:103C9000AC01D394D71498F3C801B7010E94FC205B
:103CA0005B016C010E9436227B018C01C401B801CA
:103CB000A7012AE030E00E94601DC80FD91F7720BD
:103CC00039F0C40164E273E00E94E01CC80FD91F00
:103CD000C801B7010E9462229B01AC01C601B50177
:103CE0000E94FB2024C020E030E040E251E40E942A
:103CF00086237B018C010E9431225B016C01CC2464
:103D0000B7FCC094DC2CC401B601A5012AE030E068
:103D10000E94811DC80FD91FC601B5010E946422EF
:103D20009B01AC01C801B7010E94FB207A94772067
:103D3000D1F6CE01DF91CF911F910F91FF90EF90BF
:103D4000DF90CF90BF90AF909F908F907F9008951D
:103D50000E94C41D0895EF92FF920F931F937C0160
:103D60000E94C41D8C01C7010E94C01C080F191FAE
:103D7000C8011F910F91FF90EF900895EF92FF926D
:103D80000F931F937C010E94E01C8C01C7010E94CD
:103D9000C01C080F191FC8011F910F91FF90EF90D1
:103DA00008950895CF93DF930E94531C0E94D11E63
:103DB0000E946604CFE1DFE10E94EC062097E1F368
:103DC0000E941F1FF9CF08951F920F920FB60F92F6
:103DD00011242F933F934F938F939F93EF93FF93D0
:103DE0008091C00082FD1DC04091C6002091A205B7
:103DF0003091A3052F5F3F4F2F7330708091A40542
:103E00009091A5052817390771F0E091A205F0916E
:103E1000A305EE59FA4F40833093A3052093A205E2
:103E200002C08091C600FF91EF919F918F914F91B9
:103E30003F912F910F900FBE0F901F901895E0911A
:103E4000F605F091F705E05CFF4F8191919120819B
:103E50003181805C9F4F821B930B60E470E00E9475
:103E6000D224892B11F00E94E31E08951F920F9215
:103E70000FB60F9211242F933F938F939F93EF933D
:103E8000FF932091E6053091E7058091E805909138
:103E9000E9052817390731F48091C1008F7D80939F
:103EA000C10014C0E091E805F091E905EA55FA4F28
:103EB00020818091E8059091E90501968F739070BB
:103EC0009093E9058093E8052093C600FF91EF9158
:103ED0009F918F913F912F910F900FBE0F901F9048
:103EE0001895AF92BF92DF92EF92FF920F931F93BC
:103EF000CF93DF93EC017A018B01DD24403081EE1A
:103F0000580780E0680780E0780711F0DD24D3943B
:103F100091E0A92EB12CEC89FD89DD2069F0C50165
:103F200008A002C0880F991F0A94E2F7808360E01E
:103F300079E08DE390E005C0108260E874E88EE1DE
:103F400090E0A80197010E94E524215030404040B4
:103F50005040569547953795279580E12030380792
:103F600020F0DD2011F0DD24D6CFE889F9893083F7
:103F7000EA89FB89208319A2EE89FF89408121E02B
:103F800030E0C9010C8C02C0880F991F0A94E2F737
:103F9000482B4083EE89FF894081C9010D8C02C006
:103FA000880F991F0A94E2F7482B4083EE89FF8916
:103FB0004081C9010E8C02C0880F991F0A94E2F754
:103FC000482B4083EE89FF8980810F8C02C0220F2D
:103FD000331F0A94E2F7209528232083DF91CF91A5
:103FE0001F910F91FF90EF90DF90BF90AF900895D9
:103FF000DC011C96ED91FC911D97E05CFF4F8191D7
:10400000919120813181805C9F4F821B930B60E4F2
:1040100070E00E94D2240895DC011C96ED91FC9181
:104020001D97E05CFF4F20813181E054F040DF01BB
:10403000AE5BBF4F8D919C9111972817390719F4EA
:104040002FEF3FEF07C08D919C91E80FF91F808102
:10405000282F30E0C9010895DC011C96ED91FC91F8
:104060001D97E05CFF4F20813181E054F040DF017B
:10407000AE5BBF4F8D919C9111972817390719F4AA
:104080002FEF3FEF10C08D919C911197E80FF91F12
:1040900020818D919C91119701968F73907011964C
:1040A0009C938E9330E0C9010895DC0191968C9128
:1040B0009197882339F05496ED91FC915597808122
:1040C00086FFF9CF91961C920895CF93DF93EC0170
:1040D000EE85FF85E05CFF4F20813181E054F040A8
:1040E0002F5F3F4F2F733070DF01AE5BBF4F8D915D
:1040F0009C91119728173907D1F3E05CFF4F80811D
:104100009181E054F040E80FF91F6083EE85FF8550
:10411000E05CFF4F31832083EE89FF89208181E0BD
:1041200090E00F8C02C0880F991F0A94E2F7282BA9
:10413000208381E089A3EC89FD898081806480836C
:1041400081E090E0DF91CF9108951092ED051092FB
:10415000EC0588EE93E0A0E0B0E08093EE0590934C
:10416000EF05A093F005B093F1058AE593E09093F5
:10417000EB058093EA0582E695E09093F70580933E
:10418000F60586EA95E09093F9058093F80585ECAD
:1041900090E09093FB058093FA0584EC90E0909377
:1041A000FD058093FC0580EC90E09093FF058093E3
:1041B000FE0581EC90E0909301068093000682EC6E
:1041C00090E0909303068093020686EC90E0909333
:1041D00005068093040684E08093060683E08093BE
:1041E000070687E08093080685E08093090681E052
:1041F00080930A0608955058BB27AA270ED030C2D4
:10420000F0D130F0F5D120F031F49F3F11F41EF4DD
:10421000C0C10EF4E095E7FBB6C1E92F43D280F3AD
:10422000BA17620773078407950718F071F49EF5B3
:104230005BC20EF4E0950B2EBA2FA02D0B01B90135
:1042400090010C01CA01A0011124FF27591B99F00C
:10425000593F50F4503E68F11A16F040A22F232F18
:10426000342F4427585FF3CF469537952795A79568
:10427000F0405395C9F77EF41F16BA0B620B730B0F
:10428000840BBAF09150A1F0FF0FBB1F661F771F80
:10429000881FC2F70EC0BA0F621F731F841F48F435
:1042A000879577956795B795F7959E3F08F0B3CFBB
:1042B0009395880F08F09927EE0F979587950895A5
:1042C00090D158F080E891E009F49EEF91D128F068
:1042D00040E851E059F45EEF09C05BC105C2E92F27
:1042E000E078E0D168F3092E052AC1F326173707D5
:1042F0004807590738F00E2E07F8E02569F0E02549
:10430000E0640AC0EF6307F8009407FADB01B90123
:104310009D01DC01CA01AD01EF934AD0A1D10AD0C1
:104320005F91552331F02BED3FE049E450FD49EC1E
:1043300063CF0895DF93DD27B92FBF7740E85FE3B0
:104340001616170648075B0710F4D92FD8D19F938C
:104350008F937F936F93B1D2EAEBF0E01DD180D1C0
:104360002F913F914F915F91DDD1DD2349F090581E
:10437000A2EA2AED3FE049EC5FE3D0785D274DDF0C
:10438000DF916EC1DCD008F481E0089539D1E39566
:1043900078C10CD065C12CD140F023D130F021F48C
:1043A0005F3F19F0F0C05111A0C1F3C07BD198F369
:1043B0009923C9F35523B1F3951B550BBB27AA27A6
:1043C00062177307840738F09F5F5F4F220F331F18
:1043D000441FAA1FA9F333D00E2E3AF0E0E830D0E4
:1043E00091505040E695001CCAF729D0FE2F27D0E7
:1043F000660F771F881FBB1F261737074807AB07B5
:10440000B0E809F0BB0B802DBF01FF2793585F4F29
:104410002AF09E3F510568F0B6C067C15F3FECF3DC
:10442000983EDCF3869577956795B795F7959F5FEE
:10443000C9F7880F911D9695879597F90895E1E042
:10444000660F771F881FBB1F621773078407BA07A1
:1044500020F0621B730B840BBA0BEE1F88F7E095FC
:10446000089504D06894B11140C1089523D188F013
:104470009F5790F0B92F9927B751A0F0D1F0660F50
:10448000771F881F991F1AF0BA95C9F712C0B1306B
:1044900081F02AD1B1E0089527C1672F782F8827AE
:1044A000B85F39F0B93FCCF3869577956795B395AA
:1044B000D9F73EF490958095709561957F4F8F4F19
:1044C0009F4F0895E89409C097FB3EF4909580951E
:1044D000709561957F4F8F4F9F4F9923A9F0F92FCA
:1044E00096E9BB279395F695879577956795B79548
:1044F000F111F8CFFAF4BB0F11F460FF1BC06F5F2E
:104500007F4F8F4F9F4F16C0882311F096E911C03F
:10451000772321F09EE8872F762F05C0662371F060
:1045200096E8862F70E060E02AF09A95660F771F74
:10453000881FDAF7880F9695879597F90895990F50
:104540000008550FAA0BE0E8FEEF16161706E8075D
:10455000F907C0F012161306E407F50798F0621B7E
:10456000730B840B950B39F40A2661F0232B242B53
:10457000252B21F408950A2609F4A140A6958FEF72
:10458000811D811D089597F99F6780E870E060E0C4
:1045900008959FEF80EC0895DF93CF931F930F93BF
:1045A000FF92EF92DF927B018C01689405C0DA2EB6
:1045B000EF01B8D0FE01E894A59125913591459180
:1045C0005591AEF3EF0129DEFE019701A801DA94BF
:1045D00079F7DF90EF90FF900F911F91CF91DF91CE
:1045E000089500240A941616170618060906089559
:1045F00000240A9412161306140605060895C9CF5E
:1046000059D0E8F3E894EFEFBB273FE048EC5FE7D1
:104610006B3D73078407950708F1FF279F57B25A30
:104620006A4D7F40894CF04032F4BE556542704F70
:104630008643FF4F0894EE1F915030F0BB0F661F6A
:10464000771F881FFF1FEBCF9EE7882332F0BB0F39
:10465000661F771F881F9A95C1F79395E0954FC104
:10466000092E0394000C11F4882352F0BB0F40F480
:10467000BF2B11F460FF04C06F5F7F4F8F4F9F4FC0
:104680000895EF93E0FF06C0A2EA2AED3FE049EC6F
:104690005FEBC3DDE5DF0F90039401FC9058E7EE7C
:1046A000F0E044C157FD9058440F551F59F05F3F4B
:1046B00071F04795880F97FB991F61F09F3F79F044
:1046C00087950895121613061406551FF2CF4695C6
:1046D000F1DF08C0161617061806991FF1CF869548
:1046E0007105610508940895E894BB27662777272C
:1046F000CB0197F9089523DF08F48FEF08959B010C
:10470000AC0160E070E080E89FE343CE0BD0A8CF1F
:1047100068DF28F06DDF18F0952309F034CF39CF2A
:104720001124E3CFBFDFA0F3959FD1F3950F50E0A5
:10473000551F629FF001729FBB27F00DB11D639F53
:10474000AA27F00DB11DAA1F649F6627B00DA11DF9
:10475000661F829F2227B00DA11D621F739FB00D9F
:10476000A11D621F839FA00D611D221F749F33270F
:10477000A00D611D231F849F600D211D822F762FA8
:104780006A2F11249F5750408AF0E1F088234AF0A5
:10479000EE0FFF1FBB1F661F771F881F91505040F1
:1047A000A9F79E3F510570F0EECE9FCF5F3FECF32F
:1047B000983EDCF3869577956795B795F795E795DD
:1047C0009F5FC1F7FE2B880F911D9695879597F9EE
:1047D000089570DFE0F09E37D8F09639B8F49E382F
:1047E00048F4672F782F8827985FF9CF86957795BB
:1047F000679593959539D0F3B62FB1706B0F711DF6
:10480000811D20F487957795679593955DC077C056
:104810006CCF9F93F5DE0F9007FCEE5F32CF11F463
:104820000EF4B7CE6CC046DFD0F39923D9F3CEF3A4
:104830009F57550B87FF73D056959795B0E020F49E
:10484000660F771F881FBB1F1F930F9300249001D3
:10485000A0018001F001A0E80E0F1F1F0A1E511DCC
:10486000601B710B8009B50B48F4600F711F801D30
:10487000B51F0E1B1F0B0A0A510907C02E0F3F1F41
:104880004A1F0E0F1F1F0A1E511D660F771F881F1C
:10489000BB1FA695F795E795F8F6061717070806C4
:1048A0005B07211D311D411D0F911F91B901842FFF
:1048B0009158880F9695879508959B01AC0126CF56
:1048C0003EDE880B990B0895882371F4772321F03D
:1048D0009850872B762F07C0662311F499270DC0B7
:1048E0009051862B70E060E02AF09A95660F771F52
:1048F000881FDAF7880F9695879597F908959F3F57
:1049000049F0915028F4869577956795B7959F5F04
:1049100080389F4F880F9695879597F90895915005
:104920005040660F771F881FD2F708959F938F938B
:104930007F936F93FF93EF939B01AC01E7DEEF91C1
:10494000FF912ADE2F913F914F915F91DFCE629FC1
:10495000D001739FF001829FE00DF11D649FE00D77
:10496000F11D929FF00D839FF00D749FF00D659FD8
:10497000F00D9927729FB00DE11DF91F639FB00DD7
:10498000E11DF91FBD01CF0111240895991B79E0A4
:1049900004C0991F961708F0961B881F7A95C9F7CF
:1049A0008095089597FB092E07260AD077FD04D03D
:1049B0002ED006D000201AF4709561957F4F08958F
:1049C000F6F7909581959F4F0895A1E21A2EAA1BA4
:1049D000BB1BFD010DC0AA1FBB1FEE1FFF1FA217AF
:1049E000B307E407F50720F0A21BB30BE40BF50BAC
:1049F000661F771F881F991F1A9469F76095709535
:104A0000809590959B01AC01BD01CF010895AA1B33
:104A1000BB1B51E107C0AA1FBB1FA617B70710F0A9
:104A2000A61BB70B881F991F5A95A9F780959095DB
:104A3000BC01CD010895EE0FFF1F0590F491E02D0C
:104A400009942F923F924F925F926F927F928F9232
:104A50009F92AF92BF92CF92DF92EF92FF920F930D
:104A60001F93CF93DF93CDB7DEB7CA1BDB0B0FB617
:104A7000F894DEBF0FBECDBF09942A8839884888D4
:104A80005F846E847D848C849B84AA84B984C8846A
:104A9000DF80EE80FD800C811B81AA81B981CE0F61
:104AA000D11D0FB6F894DEBF0FBECDBFED01089546
:104AB00012E0C2E0D2E004C0FE010E941D25229651
:0A4AC000C430D107C9F7F894FFCF06
:104ACA004465627567003A205B4374726C5D20002E
:104ADA00446562756725643A205B4374726C5D2095
:104AEA0000436F6E74726F6C2073797374656D20F6
:104AFA007374617274207570005072696E746620E6
:104B0A00636F6E666967757265640D0A0053657432
:104B1A0074696E6720757020736572766F732E2EB6
:104B2A002E00446F6E650053657474696E67207554
:104B3A0070204932432E2E2E0053657474696E67B5
:104B4A00207570204750532E2E2E005365747570B1
:104B5A0020436F6D706C6574650A0041626F7574ED
:104B6A0020746F207265616420475053004E4D4592
:104B7A004120737472696E673A2000666978206111
:104B8A006765203D20256C640D0A00496E76616CCC
:104B9A006964206669782C206669785F6167653D7B
:104BAA00256C640D0A004E6F2047505320666978C1
:104BBA0000496E76616C6964206669780046697896
:104BCA002056616C6964006C61743D256C64206CCC
:104BDA006F6E3D256C640D0A00456E746572696ED0
:104BEA0067206C6F6F700052656164696E67204759
:104BFA0050530074696D653D256C64206864673D97
:104C0A002564206864675F6572723D256420726F4F
:104C1A006C6C3D25642070697463683D256420725C
:104C2A0075646465723D25642077705F6E756D3DAD
:104C3A0025642077705F6864673D25642077705F1C
:104C4A00646973743D256C6420006C61743D0020B6
:104C5A006C6F6E3D002077706C61743D0020777038
:104C6A006C6F6E3D002072756E6E696E675F65725D
:104C7A00723D0053657420636F6D706173732072A7
:104C8A00656769737465720052657175657374201E
:104C9A0036206279746573004750524D430047507D
:104CAA00474741004E004E4E45004E4500454E4591
:104CBA0000450045534500534500535345005300F2
:104CCA0053535700535700575357005700574E57DF
:104CDA00004E57004E4E57006E616E00696E6600B8
:104CEA006F7666002E002C010000000000004512BD
:104CFA001412CD11D611EB11FC1100000000681638
:104D0A008E1C4E162D162B171A171F1C1F1E1F1E20
:104D1A001F1F1E1F1E1F0000000065208E1CF81F8B
:064D2A002C200C20552096
:00000001FF
